:10000000001000100D0100008501000085010000B6
:1000100000000000000000000000000000000000E0
:10002000000000000000000000000000850100004A
:1000300000000000000000008501000085010000B4
:100040008501000085010000850100008501000098
:100050008501000085010000850100008501000088
:10006000B10B000085010000850100008501000042
:100070008501000085010000850100006902000083
:100080008501000085010000850100008501000058
:1000900085010000BD080000850100008501000009
:1000A0008501000085010000850100008501000038
:1000B0008501000085010000850100008501000028
:1000C00080B500AF0B4B00221A600B4B23221A6045
:1000D0000A4B0A4A126880218A431A60084B01229F
:1000E0001A60084B03221A60074B01221A60C046AF
:1000F000BD4680BD408004400880044038820440F2
:1001000044800440708004407480044080B584B012
:1001100000AF174BFB60174BBB60174A154BD31A48
:100120007B6007E0BB685A1CBA60FA68511CF96032
:1001300012781A707B685A1E7A60002BF2D10F4B2E
:10014000BB600F4A0D4BD31A7B6004E0BB685A1C9E
:10015000BA6000221A707B685A1E7A60002BF5D1B3
:10016000FFF7AEFF00F0F2FEC046BD4604B080BD12
:10017000F31100000000001000000010000000104B
:100180002301001080B500AFFEE7C04680B582B005
:1001900000AF154B144A126814490A431A60144BF5
:1001A00001221A60134B01221A60134B124A126883
:1001B00002210A431A60F0237B60104B7A68120C0C
:1001C0001A600F4B7A681204120C1A600D4B8022D1
:1001D00012021A608023DB0540221A6000231800F7
:1001E000BD4602B080BDC0468080044020000100B2
:1001F000344004403040044004800440100000407B
:100200001400004000E100E080B584B000AF7860E9
:10021000134BFB60134B7A681A60124B1B68002269
:100220009A60104B1B6800221A6100F02BF9C0463F
:100230000C4B1B681B69002B04D1FB685A1EFA602B
:10024000002BF5D1074B1B681B69002B02D0012343
:100250005B4200E000231800BD4604B080BDC046EC
:10026000FFFF0F000000001090B500AF804B1B682F
:10027000582B00D9F9E09A007E4BD3181B689F4693
:100280008023DB0514221A607B4B08221A60ECE005
:100290007A4B1B681B68772B06D1794A774B1B6812
:1002A0001B795B00136007E0754A744B1B681B7970
:1002B0005B0001210B4313606F4B20221A608023E7
:1002C000DB0504221A606C4B08221A60CDE06B4BF0
:1002D0001B681B68772B05D1694A684B1B681B7923
:1002E0005B001360654B1B681B68722B06D1644A68
:1002F000624B1B681B795B00013313605E4B20224D
:100300001A608023DB0504221A605B4B08221A6006
:10031000ABE05B49594B1868584B1B689A68541CF2
:100320009C6083181B7D0B608023DB0504221A6010
:10033000514B08221A6098E08023DB0514221A60D2
:100340004D4B08221A604D4B1B6820221A618CE02D
:100350004A4B1B689A68494B1B68DB689A4212D269
:100360004749464B1868454B1B689A68541C9C606B
:1003700083181B7D0B608023DB0504221A603E4B33
:1003800008221A6071E08023DB0514221A603A4BC0
:1003900008221A60394B1B6828221A6165E0802305
:1003A000DB0514221A60344B08221A60334B1B6899
:1003B00030221A6159E08023DB0524221A602E4B7B
:1003C00008221A602D4B1B6838221A614DE08023E9
:1003D000DB0504221A60284B08221A6045E08023BE
:1003E000DB0514221A60244B08221A60234B1B6879
:1003F00048221A6139E0214B1968204B1B689A6822
:10040000501C98601E4B1B68D8B28B18021C1A75C2
:100410001A4B1B689A68194B1B68DB689A4203D316
:10042000154B0C221A6020E08023DB0504221A60A1
:10043000114B08221A6018E0104B19680F4B1B680B
:100440009A68501C98600E4B1B68D8B28B18021C1F
:100450001A758023DB0514221A60074B08221A60E4
:10046000064B1B6858221A61C046C046BD4690BD67
:10047000040000408C100000180000400000001034
:100480000800004080B500AF8023DB0520221A6001
:10049000C046BD4680BDC04680B500AF8023DB05A9
:1004A00010221A60C046BD4680BDC04680B500AF70
:1004B000FFF76CFE03001800BD4680BD80B598B004
:1004C00000AF0200BB1D1A807B1D0A1C1A700C2392
:1004D000FB1850221A710C23FB180322DA600C233C
:1004E000FB1877221A60BB1D1B881B0A9BB2DAB26D
:1004F0000C23FB181A75BB1D1B88DAB20C23FB18E2
:100500005A750C23FB187A1D12789A750C23FB1868
:100510001800FFF779FE0C23FB1850221A710C23E8
:10052000FB180122DA600C23FB1872221A60BB1D33
:100530001B881B0A9BB2DAB20C23FB181A75BB1D71
:100540001B88DAB20C23FB185A750C23FB187A1D92
:1005500012789A750C23FB181800FFF755FEC04659
:100560001800BD4618B080BD80B598B000AF02003D
:100570003960BB1D1A800C23FB1850221A710C2302
:10058000FB180222DA600C23FB1877221A60BB1DCD
:100590001B881B0A9BB2DAB20C23FB181A75BB1D11
:1005A0001B88DAB20C23FB185A750C23FB180022A7
:1005B0009A750C23FB181800FFF726FE0C23FB1876
:1005C00050221A710C23FB180122DA600C23FB184D
:1005D00072221A600C23FB1800221A750C23FB18D8
:1005E00000225A750C23FB181800FFF70DFE0C2390
:1005F000FB181A7D3B681A7000231800BD4618B01E
:1006000080BDC04680B582B000AF78607B681B7843
:100610001900002000F06AF87B685B78190001205F
:1006200000F064F87B689B781900022000F05EF807
:100630007B68DB781900032000F058F87B681B7991
:100640001900042000F052F87B685B79190005203E
:1006500000F04CF87B689B791900062000F046F802
:10066000C046BD4602B080BD80B582B000AF7860A4
:100670007B681900002000F063F87B6801331900E3
:10068000012000F05DF87B6802331900022000F0C1
:1006900057F87B6803331900032000F051F87B689A
:1006A00004331900042000F04BF87B68053319006F
:1006B000052000F045F87B6806331900062000F09D
:1006C0003FF8C046BD4602B080BDC04680B500AF11
:1006D000FFF75CFD0021002000F008F81021072042
:1006E00000F004F8C0461800BD4680BD80B598B043
:1006F00000AF0200BB1D1A807B1D0A1C1A700C2360
:10070000FB1868221A710C23FB180222DA600C23F2
:10071000FB1877221A60BB1D1B88DAB20C23FB186A
:100720001A750C23FB187A1D12785A750C23FB18C6
:100730001800FFF769FDC0461800BD4618B080BD1F
:1007400080B598B000AF02003960BB1D1A800C2341
:10075000FB1868221A710C23FB180122DA600C23A3
:10076000FB1877221A60BB1D1B88DAB20C23FB181A
:100770001A750C23FB1800225A750C23FB1818005D
:10078000FFF742FD0C23FB1868221A710C23FB189B
:100790000122DA600C23FB1872221A600C23FB186A
:1007A00000221A750C23FB1800225A750C23FB1823
:1007B0001800FFF729FD0C23FB181A7D3B681A70FF
:1007C00000231800BD4618B080BDC04680B500AFFC
:1007D00000232E4A53602D4A13602C4A9360002355
:1007E0002B4A53602A4A1360294A9360294B294AAD
:1007F000126829490A431A60284B284A12680121C5
:100800000A431A60254B254A126806218A431A605A
:10081000234B234A126801210A431A60204B204AC5
:10082000126806218A431A601A4B1A4A12688021FC
:1008300049010A431A601B4B01221A601A4B1A4ADB
:10084000126880210A431A60184B10221A60184B54
:1008500038221A60174B01221A60134B124A126891
:1008600080218A431A60104B0F4A126803210A4301
:100870001A60104B07221A600F4B0F4A1268802132
:1008800089030A431A60C046BD4680BD900000102F
:10089000040000108080044040000100A440044097
:1008A000A8400440988004400C800040288000400C
:1008B000008000400480004000E100E090B583B07B
:1008C00000AF114B1B687B607B680422134007D08C
:1008D0000E4B1B68DAB20E4B1100180000F01CF82A
:1008E0007B68022213400AD00A4B9B68002B06D07B
:1008F000064C084B180000F033F803002360C04694
:10090000BD4603B090BDC046088000400080004056
:10091000900000100400001080B582B000AF786035
:100920000A00FB1C1A707B689B687F2B14D872B678
:100930007B689B685A1C7B689A607B681B687A6836
:10094000D318FA1C12781A737B681B6801337F2254
:100950001A407B681A6062B6C046BD4602B080BDD0
:1009600080B584B000AF78600F23FB1800221A70A6
:100970007B689B68002B15D072B67B689B685A1EFB
:100980007B689A607B685A680F23FB1879688A181D
:10099000127B1A707B685B6801337F221A407B6888
:1009A0005A6062B60F23FB181B781800BD4604B0CE
:1009B00080BDC04680B500AF024B9B681800BD46A5
:1009C00080BDC0469000001080B500AF024B9B6810
:1009D0001800BD4680BDC0460400001080B500AFC1
:1009E000C046FFF7F1FF031EFBD1C046034B1B6857
:1009F00040221340FAD0C046BD4680BD148000405E
:100A000080B582B000AF0200FB1D1A700A4B1B6854
:100A10004022134004D0094BFA1D12781A6006E0F8
:100A2000FB1D1A78064B11001800FFF775FFC04632
:100A3000BD4602B080BDC04614800040008000402A
:100A40000400001080B500AF034B1800FFF788FFCB
:100A500003001800BD4680BD9000001080B582B034
:100A600000AF786007E07B681B781800FFF7C8FFCD
:100A70007B6801337B607B681B78002BF3D1C04619
:100A8000BD4602B080BDC04680B582B000AF786080
:100A90007B68002B07DB7B68092B04DC7B68DBB2FF
:100AA0003033DBB20BE07B68092B07DD7B680F2B53
:100AB00004DC7B68DBB23733DBB200E07A2318005A
:100AC000BD4602B080BDC04680B586B000AF78603C
:100AD00008237B610823FA187B69D31800221A7057
:100AE0007B69013B7B6113E07B680F221340180098
:100AF000FFF7CAFF030019000823FA187B69D3180F
:100B00000A1C1A707B681B097B607B69013B7B6157
:100B10007B69002BE8DA0823FB181800FFF79EFF1B
:100B2000C046BD4606B080BD80B584B000AF0200AF
:100B3000FB1D1A700223FB600823FA18FB68D31808
:100B400000221A70FB68013BFB6016E0FB1D1B785E
:100B50000F2213401800FFF797FF03001900082326
:100B6000FA18FB68D3180A1C1A70FB1DFA1D1278BC
:100B700012091A70FB68013BFB60FB68002BE5DA89
:100B80000823FB181800FFF769FFC046BD4604B0F4
:100B900080BDC04680B582B000AF7860C0467B683B
:100BA0005A1E7A60002BFAD1C046BD4602B080BD05
:100BB00080B500AF104B802252001A600F4B80228C
:100BC00052001A600E4B802252001A600D4B0D4AE3
:100BD0001268802149010A431A600A4B094A1268C7
:100BE00020210A431A60084B074A126880214A40B4
:100BF0001A60C046BD4680BD1C80005080E200E007
:100C00000882044080800440FC3F005080B500AF63
:100C10007F4B7F4A126810218A431A607D4B7D4AC0
:100C2000126810218A431A607B4B7B4A126810219C
:100C30008A431A60794B794A126810218A431A60F4
:100C4000774B774A126810218A431A60754B754AB0
:100C5000126810218A431A60734B734A126810217C
:100C60008A431A60714B714A126810218A431A60D4
:100C70006F4B6F4A126810218A431A606D4B6D4AA0
:100C8000126810218A431A606B4B6B4A126810215C
:100C90008A431A60694B694A126810218A431A60B4
:100CA000674B674A126810218A431A60654B654A90
:100CB000126810218A431A60634B634A126810213C
:100CC0008A431A60614B614A126810218A431A6094
:100CD0005F4B5F4A126810218A431A605D4B5D4A80
:100CE000126810218A431A605B4B5B4A126810211C
:100CF0008A431A60594B594A126810218A431A6074
:100D0000574B574A126810218A431A60554B554A6F
:100D1000126810218A431A60534B534A12681021FB
:100D20008A431A60514B514A126810218A431A6053
:100D30004F4B4F4A126810218A431A604D4B4D4A5F
:100D4000126810218A431A604B4B4B4A12681021DB
:100D50008A431A60494B494A126810218A431A6033
:100D6000474B474A126810218A431A60454B454A4F
:100D7000126810218A431A60434B434A12681021BB
:100D80008A431A60414B414A126810218A431A6013
:100D90003F4B3F4A126810218A431A603D4B3D4A3F
:100DA000126810218A431A603B4B3B4A126810219B
:100DB0008A431A60394B394A126810218A431A60F3
:100DC000374B374A126810218A431A60354B354A2F
:100DD000126810218A431A60334B334A126810217B
:100DE0008A431A60314B314A126810218A431A60D3
:100DF0002F4B2F4A126810218A431A602D4B2E4A1E
:100E00001A602E4B00221A60C046BD4680BDC04607
:100E10000040044008400440104004401440044096
:100E20001C4004402040044024400440284004402A
:100E30002C400440304004403440044038400440DA
:100E40003C4004404040044044400440484004408A
:100E50004C4004405040044054400440584004403A
:100E60005C400440604004406440044068400440EA
:100E70006C4004407040044074400440784004409A
:100E80007C4004408040044084400440884004404A
:100E90008C400440904004409440044098400440FA
:100EA0009C400440A0400440A4400440A8400440AA
:100EB000AC40044000800050FF0F0000FC3F005099
:100EC00080B500AF0C4B0D4A1A600D4B0C4A1268EE
:100ED0000C490A401A600A4B094A126820218A43C9
:100EE0001A60094B00221A60084B01221A6030BFB9
:100EF000C046BD4680BDC04630820440FF18000099
:100F000080800440FFEFFFFF708004407480044045
:100F100080B500AF0A4B03221A600A4B01221A6007
:100F2000094B094A1268802149010A431A60064B9D
:100F3000054A126820210A431A60C046BD4680BD9A
:100F400070800440748004408080044080B500AF0D
:100F50003D4B00221A603D4B3C4A126880210A43F7
:100F60001A603B4B00221A60FFF7B0FBFFF79EFAB6
:100F7000FFF72CFC62B6354B344A126835490A40FB
:100F80001A60354B344A126880218A431A60334B09
:100F9000802252001A60324B802252001A60314B7C
:100FA000802252001A60304B802252001A602F4B70
:100FB0002E4A1268802149000A431A602C4B2C4AA1
:100FC0001268802149000A431A602A4B294A126894
:100FD00004210A431A60284B274A126827490A400D
:100FE0001A60254B244A126825490A401A60254B8D
:100FF00000221A70234B59225A70224B23229A70D6
:10100000204B0222DA701F4B22221A711D4B032241
:101010005A711C4B16229A711A4B1800FFF7F2FAFC
:10102000184B1800FFF720FB164B1B781800FFF732
:101030007BFD154B1800FFF711FDFFF7CFFCFFF705
:101040003FFFFFF765FFEBE7504004400080005092
:10105000FC3F0050FFFEFFFF348204401C80005024
:1010600080E200E00882044000E100E010800050CF
:101070000482044010ED00E080800440FFD7FFFFB1
:0C108000FFFFFEFF1C010010F01100003B
:10108C00800200006A0400006A0400006A04000088
:10109C006A0400006A0400006A0400006A0400008C
:1010AC00900200006A0400006A0400006A04000058
:1010BC006A0400006A0400006A0400006A0400006C
:1010CC00CE0200006A0400006A0400006A040000FA
:1010DC006A0400006A0400006A0400006A0400004C
:1010EC00120300006A0400006A0400006A04000095
:1010FC006A0400006A0400006A0400006A0400002C
:10110C00380300006A0400006A0400006A0400004E
:10111C006A0400006A0400006A0400006A0400000B
:10112C00500300006A0400006A0400006A04000016
:10113C006A0400006A0400006A0400006A040000EB
:10114C009E0300006A0400006A0400006A040000A8
:10115C006A0400006A0400006A0400006A040000CB
:10116C00B60300006A0400006A0400006A04000070
:10117C006A0400006A0400006A0400006A040000AB
:10118C00CE0300006A0400006A0400006A04000038
:10119C006A0400006A0400006A0400006A0400008B
:1011AC00DE0300006A0400006A0400006A04000008
:1011BC006A0400006A0400006A0400006A0400006B
:1011CC00F60300006A0400006A0400006A040000D0
:1011DC006A0400006A0400006A0400006A0400004B
:0711EC00380400000D0A00A9
:00000001FF
